:100000000C9446000C9465000C9465000C946500FB
:100010000C9465000C9465000C9465000C946500CC
:100020000C9465000C9465000C9465000C946500BC
:100030000C9465000C9465000C9465000C946500AC
:100040000C9465000C9465000C9465000C9465009C
:100050000C9465000C9465000C9465000C9465008C
:100060000C9465000C9465000C9465000C9465007C
:100070000C9465000C9465000C9465000C9465006C
:100080000C9465000C9465000C94650011241FBE4F
:10009000CFEFD0E1DEBFCDBF11E0A0E0B1E0E0EAFC
:1000A000F3E000E00BBF02C007900D92A830B1074B
:1000B000D9F711E0A8E0B1E001C01D92A331B1076A
:1000C000E1F70E94D9000C94CE010C94000090E05E
:1000D00007C00F920F900F920F900F920F909F5F9B
:1000E0009817B8F3089588E20E94670081E0809332
:1000F0000080089588E20E9467008CE08093008071
:10010000089580688093008082E30E9467000895CC
:100110008093028082E30E94670008950F931F93EB
:10012000CF93DF938C01C0E0D0E00DC08AEF0E9436
:1001300067008AEF0E9467008AEF0E9467008AEFDB
:100140000E9467002196C017D10780F3DF91CF91FD
:100150001F910F91089582E090E00E948E0086E04A
:100160008093008088E20E946700089582E390E017
:100170000E948E0088E38093008008950F931F9360
:10018000CF93DF93EC01DC010D900020E9F70A2FFB
:10019000081B025010E0FE01E10FF11D80810E945A
:1001A00088001F5F0117B8F7DF91CF911F910F9162
:1001B0000895DF92EF92FF920F931F93CF93DF93F7
:1001C00090E895BF80E480936D0090936C008FEF72
:1001D00081BB87BB82BB0E94B6000E947A000E944E
:1001E00073000E94AB0015B814B817B88CE783BF32
:1001F000E7ECDE2E72E3E72EF12C04EF11E0D6B827
:10020000349BFECF24B12093080135B1309309010E
:10021000422F50E0CA0164E0880F991F6A95E1F708
:10022000809582BB832F8295880F880F807C2695CE
:100230002695822B81BFD32FC0E09E0120703370A2
:10024000242B352B30930B0120930A01C90168EE52
:1002500073E00E94BA0160930C01C90168EE73E07B
:100260000E94BA0164E670E00E94BA016093120134
:10027000C90164E670E00E94BA01482F6AE00E945A
:10028000AE0180930D01842F0E94AE019093100166
:10029000C901880F991F880F991F820F931F6FEF55
:1002A00073E00E94BA0160930F01E29EC001E39ED9
:1002B000900DF29E900D11246FEF73E00E94BA0131
:1002C000CB016AE070E00E94BA0180931101209F87
:1002D000C001219F900D309F900D11246FEF73E0AE
:1002E0000E94BA0160930E0180E00E94810080E0CC
:1002F00091E00E94BE0080910C01805D0E94880008
:1003000080911201805D0E94880080910D01805DC6
:100310000E94880080911001805D0E94880085E025
:1003200090E00E948E0080E40E94810080910F0185
:10033000805D0E94880085E091E00E94BE0080916F
:100340001101805D0E94880080910E01805D0E94F5
:10035000880085E090E00E948E0051CF991B79E0E3
:1003600004C0991F961708F0961B881F7A95C9F745
:1003700080950895AA1BBB1B51E107C0AA1FBB1F94
:10038000A617B70710F0A61BB70B881F991F5A9521
:10039000A9F780959095BC01CD010895F894FFCF01
:0803A0004144433A002E000025
:00000001FF
